{
  "_format": "hh-sol-artifact-1",
  "contractName": "DiamondTracking",
  "sourceName": "contracts/DiamondTracking.sol",
  "abi": [
    {
      "inputs": [
        {
          "internalType": "uint256",
          "name": "",
          "type": "uint256"
        }
      ],
      "name": "allDiamonds",
      "outputs": [
        {
          "internalType": "string",
          "name": "id",
          "type": "string"
        },
        {
          "internalType": "uint256",
          "name": "size",
          "type": "uint256"
        },
        {
          "internalType": "uint256",
          "name": "weight",
          "type": "uint256"
        }
      ],
      "stateMutability": "view",
      "type": "function"
    },
    {
      "inputs": [],
      "name": "getData",
      "outputs": [
        {
          "internalType": "string",
          "name": "",
          "type": "string"
        }
      ],
      "stateMutability": "view",
      "type": "function"
    },
    {
      "inputs": [],
      "name": "getId",
      "outputs": [
        {
          "internalType": "string",
          "name": "",
          "type": "string"
        }
      ],
      "stateMutability": "view",
      "type": "function"
    },
    {
      "inputs": [],
      "name": "myLocation",
      "outputs": [
        {
          "internalType": "string",
          "name": "",
          "type": "string"
        }
      ],
      "stateMutability": "view",
      "type": "function"
    },
    {
      "inputs": [],
      "name": "senderInfo",
      "outputs": [
        {
          "internalType": "address",
          "name": "from",
          "type": "address"
        },
        {
          "internalType": "string",
          "name": "location",
          "type": "string"
        }
      ],
      "stateMutability": "view",
      "type": "function"
    },
    {
      "inputs": [
        {
          "internalType": "string",
          "name": "_location",
          "type": "string"
        }
      ],
      "name": "setSenderValues",
      "outputs": [],
      "stateMutability": "nonpayable",
      "type": "function"
    },
    {
      "inputs": [
        {
          "internalType": "uint256",
          "name": "_size",
          "type": "uint256"
        },
        {
          "internalType": "string",
          "name": "_id",
          "type": "string"
        },
        {
          "internalType": "uint256",
          "name": "_weight",
          "type": "uint256"
        }
      ],
      "name": "setValues",
      "outputs": [],
      "stateMutability": "nonpayable",
      "type": "function"
    }
  ],
  "bytecode": "0x608060405234801561001057600080fd5b50610c92806100206000396000f3fe608060405234801561001057600080fd5b506004361061007d5760003560e01c8063773859fd1161005b578063773859fd146100f0578063d82f9c781461010c578063d92e49831461012b578063dd92abe9146101475761007d565b80631e570dd4146100825780633bc5de30146100b45780635d1ca631146100d2575b600080fd5b61009c600480360381019061009791906105c5565b610165565b6040516100ab93929190610691565b60405180910390f35b6100bc610227565b6040516100c991906106cf565b60405180910390f35b6100da6102b9565b6040516100e791906106cf565b60405180910390f35b61010a60048036038101906101059190610826565b61036f565b005b6101146103ec565b6040516101229291906108d6565b60405180910390f35b61014560048036038101906101409190610906565b6104a6565b005b61014f6104ed565b60405161015c91906106cf565b60405180910390f35b6003818154811061017557600080fd5b90600052602060002090600302016000915090508060000180546101989061097e565b80601f01602080910402602001604051908101604052809291908181526020018280546101c49061097e565b80156102115780601f106101e657610100808354040283529160200191610211565b820191906000526020600020905b8154815290600101906020018083116101f457829003601f168201915b5050505050908060010154908060020154905083565b6060600280546102369061097e565b80601f01602080910402602001604051908101604052809291908181526020018280546102629061097e565b80156102af5780601f10610284576101008083540402835291602001916102af565b820191906000526020600020905b81548152906001019060200180831161029257829003601f168201915b5050505050905090565b606060036000815481106102d0576102cf6109af565b5b906000526020600020906003020160000180546102ec9061097e565b80601f01602080910402602001604051908101604052809291908181526020018280546103189061097e565b80156103655780601f1061033a57610100808354040283529160200191610365565b820191906000526020600020905b81548152906001019060200180831161034857829003601f168201915b5050505050905090565b60006040518060600160405280848152602001858152602001838152509050600381908060018154018082558091505060019003906000526020600020906003020160009091909190915060008201518160000190816103cf9190610b8a565b506020820151816001015560408201518160020155505050505050565b60008060000160009054906101000a900473ffffffffffffffffffffffffffffffffffffffff16908060010180546104239061097e565b80601f016020809104026020016040519081016040528092919081815260200182805461044f9061097e565b801561049c5780601f106104715761010080835404028352916020019161049c565b820191906000526020600020905b81548152906001019060200180831161047f57829003601f168201915b5050505050905082565b600060405180604001604052803373ffffffffffffffffffffffffffffffffffffffff1681526020018381525090508060200151600290816104e89190610b8a565b505050565b600280546104fa9061097e565b80601f01602080910402602001604051908101604052809291908181526020018280546105269061097e565b80156105735780601f1061054857610100808354040283529160200191610573565b820191906000526020600020905b81548152906001019060200180831161055657829003601f168201915b505050505081565b6000604051905090565b600080fd5b600080fd5b6000819050919050565b6105a28161058f565b81146105ad57600080fd5b50565b6000813590506105bf81610599565b92915050565b6000602082840312156105db576105da610585565b5b60006105e9848285016105b0565b91505092915050565b600081519050919050565b600082825260208201905092915050565b60005b8381101561062c578082015181840152602081019050610611565b60008484015250505050565b6000601f19601f8301169050919050565b6000610654826105f2565b61065e81856105fd565b935061066e81856020860161060e565b61067781610638565b840191505092915050565b61068b8161058f565b82525050565b600060608201905081810360008301526106ab8186610649565b90506106ba6020830185610682565b6106c76040830184610682565b949350505050565b600060208201905081810360008301526106e98184610649565b905092915050565b600080fd5b600080fd5b7f4e487b7100000000000000000000000000000000000000000000000000000000600052604160045260246000fd5b61073382610638565b810181811067ffffffffffffffff82111715610752576107516106fb565b5b80604052505050565b600061076561057b565b9050610771828261072a565b919050565b600067ffffffffffffffff821115610791576107906106fb565b5b61079a82610638565b9050602081019050919050565b82818337600083830152505050565b60006107c96107c484610776565b61075b565b9050828152602081018484840111156107e5576107e46106f6565b5b6107f08482856107a7565b509392505050565b600082601f83011261080d5761080c6106f1565b5b813561081d8482602086016107b6565b91505092915050565b60008060006060848603121561083f5761083e610585565b5b600061084d868287016105b0565b935050602084013567ffffffffffffffff81111561086e5761086d61058a565b5b61087a868287016107f8565b925050604061088b868287016105b0565b9150509250925092565b600073ffffffffffffffffffffffffffffffffffffffff82169050919050565b60006108c082610895565b9050919050565b6108d0816108b5565b82525050565b60006040820190506108eb60008301856108c7565b81810360208301526108fd8184610649565b90509392505050565b60006020828403121561091c5761091b610585565b5b600082013567ffffffffffffffff81111561093a5761093961058a565b5b610946848285016107f8565b91505092915050565b7f4e487b7100000000000000000000000000000000000000000000000000000000600052602260045260246000fd5b6000600282049050600182168061099657607f821691505b6020821081036109a9576109a861094f565b5b50919050565b7f4e487b7100000000000000000000000000000000000000000000000000000000600052603260045260246000fd5b60008190508160005260206000209050919050565b60006020601f8301049050919050565b600082821b905092915050565b600060088302610a407fffffffffffffffffffffffffffffffffffffffffffffffffffffffffffffffff82610a03565b610a4a8683610a03565b95508019841693508086168417925050509392505050565b6000819050919050565b6000610a87610a82610a7d8461058f565b610a62565b61058f565b9050919050565b6000819050919050565b610aa183610a6c565b610ab5610aad82610a8e565b848454610a10565b825550505050565b600090565b610aca610abd565b610ad5818484610a98565b505050565b5b81811015610af957610aee600082610ac2565b600181019050610adb565b5050565b601f821115610b3e57610b0f816109de565b610b18846109f3565b81016020851015610b27578190505b610b3b610b33856109f3565b830182610ada565b50505b505050565b600082821c905092915050565b6000610b6160001984600802610b43565b1980831691505092915050565b6000610b7a8383610b50565b9150826002028217905092915050565b610b93826105f2565b67ffffffffffffffff811115610bac57610bab6106fb565b5b610bb6825461097e565b610bc1828285610afd565b600060209050601f831160018114610bf45760008415610be2578287015190505b610bec8582610b6e565b865550610c54565b601f198416610c02866109de565b60005b82811015610c2a57848901518255600182019150602085019450602081019050610c05565b86831015610c475784890151610c43601f891682610b50565b8355505b6001600288020188555050505b50505050505056fea264697066735822122041f0ffcc1794d3e506237975362e0f9c65dffde80bf600e9998c0e668851dac164736f6c63430008180033",
  "linkReferences": {},
  "deployedLinkReferences": {}
}