{"contracts/DiamondTracking.sol":{"DiamondTracking":{"abi":[{"inputs":[{"internalType":"uint256","name":"","type":"uint256"}],"name":"allDiamonds","outputs":[{"internalType":"string","name":"id","type":"string"},{"internalType":"uint256","name":"size","type":"uint256"},{"internalType":"uint256","name":"weight","type":"uint256"}],"stateMutability":"view","type":"function"},{"inputs":[],"name":"getData","outputs":[{"internalType":"string","name":"","type":"string"}],"stateMutability":"view","type":"function"},{"inputs":[],"name":"getId","outputs":[{"internalType":"string","name":"","type":"string"}],"stateMutability":"view","type":"function"},{"inputs":[],"name":"myLocation","outputs":[{"internalType":"string","name":"","type":"string"}],"stateMutability":"view","type":"function"},{"inputs":[],"name":"senderInfo","outputs":[{"internalType":"address","name":"from","type":"address"},{"internalType":"string","name":"location","type":"string"}],"stateMutability":"view","type":"function"},{"inputs":[{"internalType":"string","name":"_location","type":"string"}],"name":"setSenderValues","outputs":[],"stateMutability":"nonpayable","type":"function"},{"inputs":[{"internalType":"uint256","name":"_size","type":"uint256"},{"internalType":"string","name":"_id","type":"string"},{"internalType":"uint256","name":"_weight","type":"uint256"}],"name":"setValues","outputs":[],"stateMutability":"nonpayable","type":"function"}],"evm":{"bytecode":{"linkReferences":{},"object":"608060405234801561001057600080fd5b50610c92806100206000396000f3fe608060405234801561001057600080fd5b506004361061007d5760003560e01c8063773859fd1161005b578063773859fd146100f0578063d82f9c781461010c578063d92e49831461012b578063dd92abe9146101475761007d565b80631e570dd4146100825780633bc5de30146100b45780635d1ca631146100d2575b600080fd5b61009c600480360381019061009791906105c5565b610165565b6040516100ab93929190610691565b60405180910390f35b6100bc610227565b6040516100c991906106cf565b60405180910390f35b6100da6102b9565b6040516100e791906106cf565b60405180910390f35b61010a60048036038101906101059190610826565b61036f565b005b6101146103ec565b6040516101229291906108d6565b60405180910390f35b61014560048036038101906101409190610906565b6104a6565b005b61014f6104ed565b60405161015c91906106cf565b60405180910390f35b6003818154811061017557600080fd5b90600052602060002090600302016000915090508060000180546101989061097e565b80601f01602080910402602001604051908101604052809291908181526020018280546101c49061097e565b80156102115780601f106101e657610100808354040283529160200191610211565b820191906000526020600020905b8154815290600101906020018083116101f457829003601f168201915b5050505050908060010154908060020154905083565b6060600280546102369061097e565b80601f01602080910402602001604051908101604052809291908181526020018280546102629061097e565b80156102af5780601f10610284576101008083540402835291602001916102af565b820191906000526020600020905b81548152906001019060200180831161029257829003601f168201915b5050505050905090565b606060036000815481106102d0576102cf6109af565b5b906000526020600020906003020160000180546102ec9061097e565b80601f01602080910402602001604051908101604052809291908181526020018280546103189061097e565b80156103655780601f1061033a57610100808354040283529160200191610365565b820191906000526020600020905b81548152906001019060200180831161034857829003601f168201915b5050505050905090565b60006040518060600160405280848152602001858152602001838152509050600381908060018154018082558091505060019003906000526020600020906003020160009091909190915060008201518160000190816103cf9190610b8a565b506020820151816001015560408201518160020155505050505050565b60008060000160009054906101000a900473ffffffffffffffffffffffffffffffffffffffff16908060010180546104239061097e565b80601f016020809104026020016040519081016040528092919081815260200182805461044f9061097e565b801561049c5780601f106104715761010080835404028352916020019161049c565b820191906000526020600020905b81548152906001019060200180831161047f57829003601f168201915b5050505050905082565b600060405180604001604052803373ffffffffffffffffffffffffffffffffffffffff1681526020018381525090508060200151600290816104e89190610b8a565b505050565b600280546104fa9061097e565b80601f01602080910402602001604051908101604052809291908181526020018280546105269061097e565b80156105735780601f1061054857610100808354040283529160200191610573565b820191906000526020600020905b81548152906001019060200180831161055657829003601f168201915b505050505081565b6000604051905090565b600080fd5b600080fd5b6000819050919050565b6105a28161058f565b81146105ad57600080fd5b50565b6000813590506105bf81610599565b92915050565b6000602082840312156105db576105da610585565b5b60006105e9848285016105b0565b91505092915050565b600081519050919050565b600082825260208201905092915050565b60005b8381101561062c578082015181840152602081019050610611565b60008484015250505050565b6000601f19601f8301169050919050565b6000610654826105f2565b61065e81856105fd565b935061066e81856020860161060e565b61067781610638565b840191505092915050565b61068b8161058f565b82525050565b600060608201905081810360008301526106ab8186610649565b90506106ba6020830185610682565b6106c76040830184610682565b949350505050565b600060208201905081810360008301526106e98184610649565b905092915050565b600080fd5b600080fd5b7f4e487b7100000000000000000000000000000000000000000000000000000000600052604160045260246000fd5b61073382610638565b810181811067ffffffffffffffff82111715610752576107516106fb565b5b80604052505050565b600061076561057b565b9050610771828261072a565b919050565b600067ffffffffffffffff821115610791576107906106fb565b5b61079a82610638565b9050602081019050919050565b82818337600083830152505050565b60006107c96107c484610776565b61075b565b9050828152602081018484840111156107e5576107e46106f6565b5b6107f08482856107a7565b509392505050565b600082601f83011261080d5761080c6106f1565b5b813561081d8482602086016107b6565b91505092915050565b60008060006060848603121561083f5761083e610585565b5b600061084d868287016105b0565b935050602084013567ffffffffffffffff81111561086e5761086d61058a565b5b61087a868287016107f8565b925050604061088b868287016105b0565b9150509250925092565b600073ffffffffffffffffffffffffffffffffffffffff82169050919050565b60006108c082610895565b9050919050565b6108d0816108b5565b82525050565b60006040820190506108eb60008301856108c7565b81810360208301526108fd8184610649565b90509392505050565b60006020828403121561091c5761091b610585565b5b600082013567ffffffffffffffff81111561093a5761093961058a565b5b610946848285016107f8565b91505092915050565b7f4e487b7100000000000000000000000000000000000000000000000000000000600052602260045260246000fd5b6000600282049050600182168061099657607f821691505b6020821081036109a9576109a861094f565b5b50919050565b7f4e487b7100000000000000000000000000000000000000000000000000000000600052603260045260246000fd5b60008190508160005260206000209050919050565b60006020601f8301049050919050565b600082821b905092915050565b600060088302610a407fffffffffffffffffffffffffffffffffffffffffffffffffffffffffffffffff82610a03565b610a4a8683610a03565b95508019841693508086168417925050509392505050565b6000819050919050565b6000610a87610a82610a7d8461058f565b610a62565b61058f565b9050919050565b6000819050919050565b610aa183610a6c565b610ab5610aad82610a8e565b848454610a10565b825550505050565b600090565b610aca610abd565b610ad5818484610a98565b505050565b5b81811015610af957610aee600082610ac2565b600181019050610adb565b5050565b601f821115610b3e57610b0f816109de565b610b18846109f3565b81016020851015610b27578190505b610b3b610b33856109f3565b830182610ada565b50505b505050565b600082821c905092915050565b6000610b6160001984600802610b43565b1980831691505092915050565b6000610b7a8383610b50565b9150826002028217905092915050565b610b93826105f2565b67ffffffffffffffff811115610bac57610bab6106fb565b5b610bb6825461097e565b610bc1828285610afd565b600060209050601f831160018114610bf45760008415610be2578287015190505b610bec8582610b6e565b865550610c54565b601f198416610c02866109de565b60005b82811015610c2a57848901518255600182019150602085019450602081019050610c05565b86831015610c475784890151610c43601f891682610b50565b8355505b6001600288020188555050505b50505050505056fea264697066735822122041f0ffcc1794d3e506237975362e0f9c65dffde80bf600e9998c0e668851dac164736f6c63430008180033","opcodes":"PUSH1 0x80 PUSH1 0x40 MSTORE CALLVALUE DUP1 ISZERO PUSH2 0x10 JUMPI PUSH1 0x0 DUP1 REVERT JUMPDEST POP PUSH2 0xC92 DUP1 PUSH2 0x20 PUSH1 0x0 CODECOPY PUSH1 0x0 RETURN INVALID PUSH1 0x80 PUSH1 0x40 MSTORE CALLVALUE DUP1 ISZERO PUSH2 0x10 JUMPI PUSH1 0x0 DUP1 REVERT JUMPDEST POP PUSH1 0x4 CALLDATASIZE LT PUSH2 0x7D JUMPI PUSH1 0x0 CALLDATALOAD PUSH1 0xE0 SHR DUP1 PUSH4 0x773859FD GT PUSH2 0x5B JUMPI DUP1 PUSH4 0x773859FD EQ PUSH2 0xF0 JUMPI DUP1 PUSH4 0xD82F9C78 EQ PUSH2 0x10C JUMPI DUP1 PUSH4 0xD92E4983 EQ PUSH2 0x12B JUMPI DUP1 PUSH4 0xDD92ABE9 EQ PUSH2 0x147 JUMPI PUSH2 0x7D JUMP JUMPDEST DUP1 PUSH4 0x1E570DD4 EQ PUSH2 0x82 JUMPI DUP1 PUSH4 0x3BC5DE30 EQ PUSH2 0xB4 JUMPI DUP1 PUSH4 0x5D1CA631 EQ PUSH2 0xD2 JUMPI JUMPDEST PUSH1 0x0 DUP1 REVERT JUMPDEST PUSH2 0x9C PUSH1 0x4 DUP1 CALLDATASIZE SUB DUP2 ADD SWAP1 PUSH2 0x97 SWAP2 SWAP1 PUSH2 0x5C5 JUMP JUMPDEST PUSH2 0x165 JUMP JUMPDEST PUSH1 0x40 MLOAD PUSH2 0xAB SWAP4 SWAP3 SWAP2 SWAP1 PUSH2 0x691 JUMP JUMPDEST PUSH1 0x40 MLOAD DUP1 SWAP2 SUB SWAP1 RETURN JUMPDEST PUSH2 0xBC PUSH2 0x227 JUMP JUMPDEST PUSH1 0x40 MLOAD PUSH2 0xC9 SWAP2 SWAP1 PUSH2 0x6CF JUMP JUMPDEST PUSH1 0x40 MLOAD DUP1 SWAP2 SUB SWAP1 RETURN JUMPDEST PUSH2 0xDA PUSH2 0x2B9 JUMP JUMPDEST PUSH1 0x40 MLOAD PUSH2 0xE7 SWAP2 SWAP1 PUSH2 0x6CF JUMP JUMPDEST PUSH1 0x40 MLOAD DUP1 SWAP2 SUB SWAP1 RETURN JUMPDEST PUSH2 0x10A PUSH1 0x4 DUP1 CALLDATASIZE SUB DUP2 ADD SWAP1 PUSH2 0x105 SWAP2 SWAP1 PUSH2 0x826 JUMP JUMPDEST PUSH2 0x36F JUMP JUMPDEST STOP JUMPDEST PUSH2 0x114 PUSH2 0x3EC JUMP JUMPDEST PUSH1 0x40 MLOAD PUSH2 0x122 SWAP3 SWAP2 SWAP1 PUSH2 0x8D6 JUMP JUMPDEST PUSH1 0x40 MLOAD DUP1 SWAP2 SUB SWAP1 RETURN JUMPDEST PUSH2 0x145 PUSH1 0x4 DUP1 CALLDATASIZE SUB DUP2 ADD SWAP1 PUSH2 0x140 SWAP2 SWAP1 PUSH2 0x906 JUMP JUMPDEST PUSH2 0x4A6 JUMP JUMPDEST STOP JUMPDEST PUSH2 0x14F PUSH2 0x4ED JUMP JUMPDEST PUSH1 0x40 MLOAD PUSH2 0x15C SWAP2 SWAP1 PUSH2 0x6CF JUMP JUMPDEST PUSH1 0x40 MLOAD DUP1 SWAP2 SUB SWAP1 RETURN JUMPDEST PUSH1 0x3 DUP2 DUP2 SLOAD DUP2 LT PUSH2 0x175 JUMPI PUSH1 0x0 DUP1 REVERT JUMPDEST SWAP1 PUSH1 0x0 MSTORE PUSH1 0x20 PUSH1 0x0 KECCAK256 SWAP1 PUSH1 0x3 MUL ADD PUSH1 0x0 SWAP2 POP SWAP1 POP DUP1 PUSH1 0x0 ADD DUP1 SLOAD PUSH2 0x198 SWAP1 PUSH2 0x97E JUMP JUMPDEST DUP1 PUSH1 0x1F ADD PUSH1 0x20 DUP1 SWAP2 DIV MUL PUSH1 0x20 ADD PUSH1 0x40 MLOAD SWAP1 DUP2 ADD PUSH1 0x40 MSTORE DUP1 SWAP3 SWAP2 SWAP1 DUP2 DUP2 MSTORE PUSH1 0x20 ADD DUP3 DUP1 SLOAD PUSH2 0x1C4 SWAP1 PUSH2 0x97E JUMP JUMPDEST DUP1 ISZERO PUSH2 0x211 JUMPI DUP1 PUSH1 0x1F LT PUSH2 0x1E6 JUMPI PUSH2 0x100 DUP1 DUP4 SLOAD DIV MUL DUP4 MSTORE SWAP2 PUSH1 0x20 ADD SWAP2 PUSH2 0x211 JUMP JUMPDEST DUP3 ADD SWAP2 SWAP1 PUSH1 0x0 MSTORE PUSH1 0x20 PUSH1 0x0 KECCAK256 SWAP1 JUMPDEST DUP2 SLOAD DUP2 MSTORE SWAP1 PUSH1 0x1 ADD SWAP1 PUSH1 0x20 ADD DUP1 DUP4 GT PUSH2 0x1F4 JUMPI DUP3 SWAP1 SUB PUSH1 0x1F AND DUP3 ADD SWAP2 JUMPDEST POP POP POP POP POP SWAP1 DUP1 PUSH1 0x1 ADD SLOAD SWAP1 DUP1 PUSH1 0x2 ADD SLOAD SWAP1 POP DUP4 JUMP JUMPDEST PUSH1 0x60 PUSH1 0x2 DUP1 SLOAD PUSH2 0x236 SWAP1 PUSH2 0x97E JUMP JUMPDEST DUP1 PUSH1 0x1F ADD PUSH1 0x20 DUP1 SWAP2 DIV MUL PUSH1 0x20 ADD PUSH1 0x40 MLOAD SWAP1 DUP2 ADD PUSH1 0x40 MSTORE DUP1 SWAP3 SWAP2 SWAP1 DUP2 DUP2 MSTORE PUSH1 0x20 ADD DUP3 DUP1 SLOAD PUSH2 0x262 SWAP1 PUSH2 0x97E JUMP JUMPDEST DUP1 ISZERO PUSH2 0x2AF JUMPI DUP1 PUSH1 0x1F LT PUSH2 0x284 JUMPI PUSH2 0x100 DUP1 DUP4 SLOAD DIV MUL DUP4 MSTORE SWAP2 PUSH1 0x20 ADD SWAP2 PUSH2 0x2AF JUMP JUMPDEST DUP3 ADD SWAP2 SWAP1 PUSH1 0x0 MSTORE PUSH1 0x20 PUSH1 0x0 KECCAK256 SWAP1 JUMPDEST DUP2 SLOAD DUP2 MSTORE SWAP1 PUSH1 0x1 ADD SWAP1 PUSH1 0x20 ADD DUP1 DUP4 GT PUSH2 0x292 JUMPI DUP3 SWAP1 SUB PUSH1 0x1F AND DUP3 ADD SWAP2 JUMPDEST POP POP POP POP POP SWAP1 POP SWAP1 JUMP JUMPDEST PUSH1 0x60 PUSH1 0x3 PUSH1 0x0 DUP2 SLOAD DUP2 LT PUSH2 0x2D0 JUMPI PUSH2 0x2CF PUSH2 0x9AF JUMP JUMPDEST JUMPDEST SWAP1 PUSH1 0x0 MSTORE PUSH1 0x20 PUSH1 0x0 KECCAK256 SWAP1 PUSH1 0x3 MUL ADD PUSH1 0x0 ADD DUP1 SLOAD PUSH2 0x2EC SWAP1 PUSH2 0x97E JUMP JUMPDEST DUP1 PUSH1 0x1F ADD PUSH1 0x20 DUP1 SWAP2 DIV MUL PUSH1 0x20 ADD PUSH1 0x40 MLOAD SWAP1 DUP2 ADD PUSH1 0x40 MSTORE DUP1 SWAP3 SWAP2 SWAP1 DUP2 DUP2 MSTORE PUSH1 0x20 ADD DUP3 DUP1 SLOAD PUSH2 0x318 SWAP1 PUSH2 0x97E JUMP JUMPDEST DUP1 ISZERO PUSH2 0x365 JUMPI DUP1 PUSH1 0x1F LT PUSH2 0x33A JUMPI PUSH2 0x100 DUP1 DUP4 SLOAD DIV MUL DUP4 MSTORE SWAP2 PUSH1 0x20 ADD SWAP2 PUSH2 0x365 JUMP JUMPDEST DUP3 ADD SWAP2 SWAP1 PUSH1 0x0 MSTORE PUSH1 0x20 PUSH1 0x0 KECCAK256 SWAP1 JUMPDEST DUP2 SLOAD DUP2 MSTORE SWAP1 PUSH1 0x1 ADD SWAP1 PUSH1 0x20 ADD DUP1 DUP4 GT PUSH2 0x348 JUMPI DUP3 SWAP1 SUB PUSH1 0x1F AND DUP3 ADD SWAP2 JUMPDEST POP POP POP POP POP SWAP1 POP SWAP1 JUMP JUMPDEST PUSH1 0x0 PUSH1 0x40 MLOAD DUP1 PUSH1 0x60 ADD PUSH1 0x40 MSTORE DUP1 DUP5 DUP2 MSTORE PUSH1 0x20 ADD DUP6 DUP2 MSTORE PUSH1 0x20 ADD DUP4 DUP2 MSTORE POP SWAP1 POP PUSH1 0x3 DUP2 SWAP1 DUP1 PUSH1 0x1 DUP2 SLOAD ADD DUP1 DUP3 SSTORE DUP1 SWAP2 POP POP PUSH1 0x1 SWAP1 SUB SWAP1 PUSH1 0x0 MSTORE PUSH1 0x20 PUSH1 0x0 KECCAK256 SWAP1 PUSH1 0x3 MUL ADD PUSH1 0x0 SWAP1 SWAP2 SWAP1 SWAP2 SWAP1 SWAP2 POP PUSH1 0x0 DUP3 ADD MLOAD DUP2 PUSH1 0x0 ADD SWAP1 DUP2 PUSH2 0x3CF SWAP2 SWAP1 PUSH2 0xB8A JUMP JUMPDEST POP PUSH1 0x20 DUP3 ADD MLOAD DUP2 PUSH1 0x1 ADD SSTORE PUSH1 0x40 DUP3 ADD MLOAD DUP2 PUSH1 0x2 ADD SSTORE POP POP POP POP POP POP JUMP JUMPDEST PUSH1 0x0 DUP1 PUSH1 0x0 ADD PUSH1 0x0 SWAP1 SLOAD SWAP1 PUSH2 0x100 EXP SWAP1 DIV PUSH20 0xFFFFFFFFFFFFFFFFFFFFFFFFFFFFFFFFFFFFFFFF AND SWAP1 DUP1 PUSH1 0x1 ADD DUP1 SLOAD PUSH2 0x423 SWAP1 PUSH2 0x97E JUMP JUMPDEST DUP1 PUSH1 0x1F ADD PUSH1 0x20 DUP1 SWAP2 DIV MUL PUSH1 0x20 ADD PUSH1 0x40 MLOAD SWAP1 DUP2 ADD PUSH1 0x40 MSTORE DUP1 SWAP3 SWAP2 SWAP1 DUP2 DUP2 MSTORE PUSH1 0x20 ADD DUP3 DUP1 SLOAD PUSH2 0x44F SWAP1 PUSH2 0x97E JUMP JUMPDEST DUP1 ISZERO PUSH2 0x49C JUMPI DUP1 PUSH1 0x1F LT PUSH2 0x471 JUMPI PUSH2 0x100 DUP1 DUP4 SLOAD DIV MUL DUP4 MSTORE SWAP2 PUSH1 0x20 ADD SWAP2 PUSH2 0x49C JUMP JUMPDEST DUP3 ADD SWAP2 SWAP1 PUSH1 0x0 MSTORE PUSH1 0x20 PUSH1 0x0 KECCAK256 SWAP1 JUMPDEST DUP2 SLOAD DUP2 MSTORE SWAP1 PUSH1 0x1 ADD SWAP1 PUSH1 0x20 ADD DUP1 DUP4 GT PUSH2 0x47F JUMPI DUP3 SWAP1 SUB PUSH1 0x1F AND DUP3 ADD SWAP2 JUMPDEST POP POP POP POP POP SWAP1 POP DUP3 JUMP JUMPDEST PUSH1 0x0 PUSH1 0x40 MLOAD DUP1 PUSH1 0x40 ADD PUSH1 0x40 MSTORE DUP1 CALLER PUSH20 0xFFFFFFFFFFFFFFFFFFFFFFFFFFFFFFFFFFFFFFFF AND DUP2 MSTORE PUSH1 0x20 ADD DUP4 DUP2 MSTORE POP SWAP1 POP DUP1 PUSH1 0x20 ADD MLOAD PUSH1 0x2 SWAP1 DUP2 PUSH2 0x4E8 SWAP2 SWAP1 PUSH2 0xB8A JUMP JUMPDEST POP POP POP JUMP JUMPDEST PUSH1 0x2 DUP1 SLOAD PUSH2 0x4FA SWAP1 PUSH2 0x97E JUMP JUMPDEST DUP1 PUSH1 0x1F ADD PUSH1 0x20 DUP1 SWAP2 DIV MUL PUSH1 0x20 ADD PUSH1 0x40 MLOAD SWAP1 DUP2 ADD PUSH1 0x40 MSTORE DUP1 SWAP3 SWAP2 SWAP1 DUP2 DUP2 MSTORE PUSH1 0x20 ADD DUP3 DUP1 SLOAD PUSH2 0x526 SWAP1 PUSH2 0x97E JUMP JUMPDEST DUP1 ISZERO PUSH2 0x573 JUMPI DUP1 PUSH1 0x1F LT PUSH2 0x548 JUMPI PUSH2 0x100 DUP1 DUP4 SLOAD DIV MUL DUP4 MSTORE SWAP2 PUSH1 0x20 ADD SWAP2 PUSH2 0x573 JUMP JUMPDEST DUP3 ADD SWAP2 SWAP1 PUSH1 0x0 MSTORE PUSH1 0x20 PUSH1 0x0 KECCAK256 SWAP1 JUMPDEST DUP2 SLOAD DUP2 MSTORE SWAP1 PUSH1 0x1 ADD SWAP1 PUSH1 0x20 ADD DUP1 DUP4 GT PUSH2 0x556 JUMPI DUP3 SWAP1 SUB PUSH1 0x1F AND DUP3 ADD SWAP2 JUMPDEST POP POP POP POP POP DUP2 JUMP JUMPDEST PUSH1 0x0 PUSH1 0x40 MLOAD SWAP1 POP SWAP1 JUMP JUMPDEST PUSH1 0x0 DUP1 REVERT JUMPDEST PUSH1 0x0 DUP1 REVERT JUMPDEST PUSH1 0x0 DUP2 SWAP1 POP SWAP2 SWAP1 POP JUMP JUMPDEST PUSH2 0x5A2 DUP2 PUSH2 0x58F JUMP JUMPDEST DUP2 EQ PUSH2 0x5AD JUMPI PUSH1 0x0 DUP1 REVERT JUMPDEST POP JUMP JUMPDEST PUSH1 0x0 DUP2 CALLDATALOAD SWAP1 POP PUSH2 0x5BF DUP2 PUSH2 0x599 JUMP JUMPDEST SWAP3 SWAP2 POP POP JUMP JUMPDEST PUSH1 0x0 PUSH1 0x20 DUP3 DUP5 SUB SLT ISZERO PUSH2 0x5DB JUMPI PUSH2 0x5DA PUSH2 0x585 JUMP JUMPDEST JUMPDEST PUSH1 0x0 PUSH2 0x5E9 DUP5 DUP3 DUP6 ADD PUSH2 0x5B0 JUMP JUMPDEST SWAP2 POP POP SWAP3 SWAP2 POP POP JUMP JUMPDEST PUSH1 0x0 DUP2 MLOAD SWAP1 POP SWAP2 SWAP1 POP JUMP JUMPDEST PUSH1 0x0 DUP3 DUP3 MSTORE PUSH1 0x20 DUP3 ADD SWAP1 POP SWAP3 SWAP2 POP POP JUMP JUMPDEST PUSH1 0x0 JUMPDEST DUP4 DUP2 LT ISZERO PUSH2 0x62C JUMPI DUP1 DUP3 ADD MLOAD DUP2 DUP5 ADD MSTORE PUSH1 0x20 DUP2 ADD SWAP1 POP PUSH2 0x611 JUMP JUMPDEST PUSH1 0x0 DUP5 DUP5 ADD MSTORE POP POP POP POP JUMP JUMPDEST PUSH1 0x0 PUSH1 0x1F NOT PUSH1 0x1F DUP4 ADD AND SWAP1 POP SWAP2 SWAP1 POP JUMP JUMPDEST PUSH1 0x0 PUSH2 0x654 DUP3 PUSH2 0x5F2 JUMP JUMPDEST PUSH2 0x65E DUP2 DUP6 PUSH2 0x5FD JUMP JUMPDEST SWAP4 POP PUSH2 0x66E DUP2 DUP6 PUSH1 0x20 DUP7 ADD PUSH2 0x60E JUMP JUMPDEST PUSH2 0x677 DUP2 PUSH2 0x638 JUMP JUMPDEST DUP5 ADD SWAP2 POP POP SWAP3 SWAP2 POP POP JUMP JUMPDEST PUSH2 0x68B DUP2 PUSH2 0x58F JUMP JUMPDEST DUP3 MSTORE POP POP JUMP JUMPDEST PUSH1 0x0 PUSH1 0x60 DUP3 ADD SWAP1 POP DUP2 DUP2 SUB PUSH1 0x0 DUP4 ADD MSTORE PUSH2 0x6AB DUP2 DUP7 PUSH2 0x649 JUMP JUMPDEST SWAP1 POP PUSH2 0x6BA PUSH1 0x20 DUP4 ADD DUP6 PUSH2 0x682 JUMP JUMPDEST PUSH2 0x6C7 PUSH1 0x40 DUP4 ADD DUP5 PUSH2 0x682 JUMP JUMPDEST SWAP5 SWAP4 POP POP POP POP JUMP JUMPDEST PUSH1 0x0 PUSH1 0x20 DUP3 ADD SWAP1 POP DUP2 DUP2 SUB PUSH1 0x0 DUP4 ADD MSTORE PUSH2 0x6E9 DUP2 DUP5 PUSH2 0x649 JUMP JUMPDEST SWAP1 POP SWAP3 SWAP2 POP POP JUMP JUMPDEST PUSH1 0x0 DUP1 REVERT JUMPDEST PUSH1 0x0 DUP1 REVERT JUMPDEST PUSH32 0x4E487B7100000000000000000000000000000000000000000000000000000000 PUSH1 0x0 MSTORE PUSH1 0x41 PUSH1 0x4 MSTORE PUSH1 0x24 PUSH1 0x0 REVERT JUMPDEST PUSH2 0x733 DUP3 PUSH2 0x638 JUMP JUMPDEST DUP2 ADD DUP2 DUP2 LT PUSH8 0xFFFFFFFFFFFFFFFF DUP3 GT OR ISZERO PUSH2 0x752 JUMPI PUSH2 0x751 PUSH2 0x6FB JUMP JUMPDEST JUMPDEST DUP1 PUSH1 0x40 MSTORE POP POP POP JUMP JUMPDEST PUSH1 0x0 PUSH2 0x765 PUSH2 0x57B JUMP JUMPDEST SWAP1 POP PUSH2 0x771 DUP3 DUP3 PUSH2 0x72A JUMP JUMPDEST SWAP2 SWAP1 POP JUMP JUMPDEST PUSH1 0x0 PUSH8 0xFFFFFFFFFFFFFFFF DUP3 GT ISZERO PUSH2 0x791 JUMPI PUSH2 0x790 PUSH2 0x6FB JUMP JUMPDEST JUMPDEST PUSH2 0x79A DUP3 PUSH2 0x638 JUMP JUMPDEST SWAP1 POP PUSH1 0x20 DUP2 ADD SWAP1 POP SWAP2 SWAP1 POP JUMP JUMPDEST DUP3 DUP2 DUP4 CALLDATACOPY PUSH1 0x0 DUP4 DUP4 ADD MSTORE POP POP POP JUMP JUMPDEST PUSH1 0x0 PUSH2 0x7C9 PUSH2 0x7C4 DUP5 PUSH2 0x776 JUMP JUMPDEST PUSH2 0x75B JUMP JUMPDEST SWAP1 POP DUP3 DUP2 MSTORE PUSH1 0x20 DUP2 ADD DUP5 DUP5 DUP5 ADD GT ISZERO PUSH2 0x7E5 JUMPI PUSH2 0x7E4 PUSH2 0x6F6 JUMP JUMPDEST JUMPDEST PUSH2 0x7F0 DUP5 DUP3 DUP6 PUSH2 0x7A7 JUMP JUMPDEST POP SWAP4 SWAP3 POP POP POP JUMP JUMPDEST PUSH1 0x0 DUP3 PUSH1 0x1F DUP4 ADD SLT PUSH2 0x80D JUMPI PUSH2 0x80C PUSH2 0x6F1 JUMP JUMPDEST JUMPDEST DUP2 CALLDATALOAD PUSH2 0x81D DUP5 DUP3 PUSH1 0x20 DUP7 ADD PUSH2 0x7B6 JUMP JUMPDEST SWAP2 POP POP SWAP3 SWAP2 POP POP JUMP JUMPDEST PUSH1 0x0 DUP1 PUSH1 0x0 PUSH1 0x60 DUP5 DUP7 SUB SLT ISZERO PUSH2 0x83F JUMPI PUSH2 0x83E PUSH2 0x585 JUMP JUMPDEST JUMPDEST PUSH1 0x0 PUSH2 0x84D DUP7 DUP3 DUP8 ADD PUSH2 0x5B0 JUMP JUMPDEST SWAP4 POP POP PUSH1 0x20 DUP5 ADD CALLDATALOAD PUSH8 0xFFFFFFFFFFFFFFFF DUP2 GT ISZERO PUSH2 0x86E JUMPI PUSH2 0x86D PUSH2 0x58A JUMP JUMPDEST JUMPDEST PUSH2 0x87A DUP7 DUP3 DUP8 ADD PUSH2 0x7F8 JUMP JUMPDEST SWAP3 POP POP PUSH1 0x40 PUSH2 0x88B DUP7 DUP3 DUP8 ADD PUSH2 0x5B0 JUMP JUMPDEST SWAP2 POP POP SWAP3 POP SWAP3 POP SWAP3 JUMP JUMPDEST PUSH1 0x0 PUSH20 0xFFFFFFFFFFFFFFFFFFFFFFFFFFFFFFFFFFFFFFFF DUP3 AND SWAP1 POP SWAP2 SWAP1 POP JUMP JUMPDEST PUSH1 0x0 PUSH2 0x8C0 DUP3 PUSH2 0x895 JUMP JUMPDEST SWAP1 POP SWAP2 SWAP1 POP JUMP JUMPDEST PUSH2 0x8D0 DUP2 PUSH2 0x8B5 JUMP JUMPDEST DUP3 MSTORE POP POP JUMP JUMPDEST PUSH1 0x0 PUSH1 0x40 DUP3 ADD SWAP1 POP PUSH2 0x8EB PUSH1 0x0 DUP4 ADD DUP6 PUSH2 0x8C7 JUMP JUMPDEST DUP2 DUP2 SUB PUSH1 0x20 DUP4 ADD MSTORE PUSH2 0x8FD DUP2 DUP5 PUSH2 0x649 JUMP JUMPDEST SWAP1 POP SWAP4 SWAP3 POP POP POP JUMP JUMPDEST PUSH1 0x0 PUSH1 0x20 DUP3 DUP5 SUB SLT ISZERO PUSH2 0x91C JUMPI PUSH2 0x91B PUSH2 0x585 JUMP JUMPDEST JUMPDEST PUSH1 0x0 DUP3 ADD CALLDATALOAD PUSH8 0xFFFFFFFFFFFFFFFF DUP2 GT ISZERO PUSH2 0x93A JUMPI PUSH2 0x939 PUSH2 0x58A JUMP JUMPDEST JUMPDEST PUSH2 0x946 DUP5 DUP3 DUP6 ADD PUSH2 0x7F8 JUMP JUMPDEST SWAP2 POP POP SWAP3 SWAP2 POP POP JUMP JUMPDEST PUSH32 0x4E487B7100000000000000000000000000000000000000000000000000000000 PUSH1 0x0 MSTORE PUSH1 0x22 PUSH1 0x4 MSTORE PUSH1 0x24 PUSH1 0x0 REVERT JUMPDEST PUSH1 0x0 PUSH1 0x2 DUP3 DIV SWAP1 POP PUSH1 0x1 DUP3 AND DUP1 PUSH2 0x996 JUMPI PUSH1 0x7F DUP3 AND SWAP2 POP JUMPDEST PUSH1 0x20 DUP3 LT DUP2 SUB PUSH2 0x9A9 JUMPI PUSH2 0x9A8 PUSH2 0x94F JUMP JUMPDEST JUMPDEST POP SWAP2 SWAP1 POP JUMP JUMPDEST PUSH32 0x4E487B7100000000000000000000000000000000000000000000000000000000 PUSH1 0x0 MSTORE PUSH1 0x32 PUSH1 0x4 MSTORE PUSH1 0x24 PUSH1 0x0 REVERT JUMPDEST PUSH1 0x0 DUP2 SWAP1 POP DUP2 PUSH1 0x0 MSTORE PUSH1 0x20 PUSH1 0x0 KECCAK256 SWAP1 POP SWAP2 SWAP1 POP JUMP JUMPDEST PUSH1 0x0 PUSH1 0x20 PUSH1 0x1F DUP4 ADD DIV SWAP1 POP SWAP2 SWAP1 POP JUMP JUMPDEST PUSH1 0x0 DUP3 DUP3 SHL SWAP1 POP SWAP3 SWAP2 POP POP JUMP JUMPDEST PUSH1 0x0 PUSH1 0x8 DUP4 MUL PUSH2 0xA40 PUSH32 0xFFFFFFFFFFFFFFFFFFFFFFFFFFFFFFFFFFFFFFFFFFFFFFFFFFFFFFFFFFFFFFFF DUP3 PUSH2 0xA03 JUMP JUMPDEST PUSH2 0xA4A DUP7 DUP4 PUSH2 0xA03 JUMP JUMPDEST SWAP6 POP DUP1 NOT DUP5 AND SWAP4 POP DUP1 DUP7 AND DUP5 OR SWAP3 POP POP POP SWAP4 SWAP3 POP POP POP JUMP JUMPDEST PUSH1 0x0 DUP2 SWAP1 POP SWAP2 SWAP1 POP JUMP JUMPDEST PUSH1 0x0 PUSH2 0xA87 PUSH2 0xA82 PUSH2 0xA7D DUP5 PUSH2 0x58F JUMP JUMPDEST PUSH2 0xA62 JUMP JUMPDEST PUSH2 0x58F JUMP JUMPDEST SWAP1 POP SWAP2 SWAP1 POP JUMP JUMPDEST PUSH1 0x0 DUP2 SWAP1 POP SWAP2 SWAP1 POP JUMP JUMPDEST PUSH2 0xAA1 DUP4 PUSH2 0xA6C JUMP JUMPDEST PUSH2 0xAB5 PUSH2 0xAAD DUP3 PUSH2 0xA8E JUMP JUMPDEST DUP5 DUP5 SLOAD PUSH2 0xA10 JUMP JUMPDEST DUP3 SSTORE POP POP POP POP JUMP JUMPDEST PUSH1 0x0 SWAP1 JUMP JUMPDEST PUSH2 0xACA PUSH2 0xABD JUMP JUMPDEST PUSH2 0xAD5 DUP2 DUP5 DUP5 PUSH2 0xA98 JUMP JUMPDEST POP POP POP JUMP JUMPDEST JUMPDEST DUP2 DUP2 LT ISZERO PUSH2 0xAF9 JUMPI PUSH2 0xAEE PUSH1 0x0 DUP3 PUSH2 0xAC2 JUMP JUMPDEST PUSH1 0x1 DUP2 ADD SWAP1 POP PUSH2 0xADB JUMP JUMPDEST POP POP JUMP JUMPDEST PUSH1 0x1F DUP3 GT ISZERO PUSH2 0xB3E JUMPI PUSH2 0xB0F DUP2 PUSH2 0x9DE JUMP JUMPDEST PUSH2 0xB18 DUP5 PUSH2 0x9F3 JUMP JUMPDEST DUP2 ADD PUSH1 0x20 DUP6 LT ISZERO PUSH2 0xB27 JUMPI DUP2 SWAP1 POP JUMPDEST PUSH2 0xB3B PUSH2 0xB33 DUP6 PUSH2 0x9F3 JUMP JUMPDEST DUP4 ADD DUP3 PUSH2 0xADA JUMP JUMPDEST POP POP JUMPDEST POP POP POP JUMP JUMPDEST PUSH1 0x0 DUP3 DUP3 SHR SWAP1 POP SWAP3 SWAP2 POP POP JUMP JUMPDEST PUSH1 0x0 PUSH2 0xB61 PUSH1 0x0 NOT DUP5 PUSH1 0x8 MUL PUSH2 0xB43 JUMP JUMPDEST NOT DUP1 DUP4 AND SWAP2 POP POP SWAP3 SWAP2 POP POP JUMP JUMPDEST PUSH1 0x0 PUSH2 0xB7A DUP4 DUP4 PUSH2 0xB50 JUMP JUMPDEST SWAP2 POP DUP3 PUSH1 0x2 MUL DUP3 OR SWAP1 POP SWAP3 SWAP2 POP POP JUMP JUMPDEST PUSH2 0xB93 DUP3 PUSH2 0x5F2 JUMP JUMPDEST PUSH8 0xFFFFFFFFFFFFFFFF DUP2 GT ISZERO PUSH2 0xBAC JUMPI PUSH2 0xBAB PUSH2 0x6FB JUMP JUMPDEST JUMPDEST PUSH2 0xBB6 DUP3 SLOAD PUSH2 0x97E JUMP JUMPDEST PUSH2 0xBC1 DUP3 DUP3 DUP6 PUSH2 0xAFD JUMP JUMPDEST PUSH1 0x0 PUSH1 0x20 SWAP1 POP PUSH1 0x1F DUP4 GT PUSH1 0x1 DUP2 EQ PUSH2 0xBF4 JUMPI PUSH1 0x0 DUP5 ISZERO PUSH2 0xBE2 JUMPI DUP3 DUP8 ADD MLOAD SWAP1 POP JUMPDEST PUSH2 0xBEC DUP6 DUP3 PUSH2 0xB6E JUMP JUMPDEST DUP7 SSTORE POP PUSH2 0xC54 JUMP JUMPDEST PUSH1 0x1F NOT DUP5 AND PUSH2 0xC02 DUP7 PUSH2 0x9DE JUMP JUMPDEST PUSH1 0x0 JUMPDEST DUP3 DUP2 LT ISZERO PUSH2 0xC2A JUMPI DUP5 DUP10 ADD MLOAD DUP3 SSTORE PUSH1 0x1 DUP3 ADD SWAP2 POP PUSH1 0x20 DUP6 ADD SWAP5 POP PUSH1 0x20 DUP2 ADD SWAP1 POP PUSH2 0xC05 JUMP JUMPDEST DUP7 DUP4 LT ISZERO PUSH2 0xC47 JUMPI DUP5 DUP10 ADD MLOAD PUSH2 0xC43 PUSH1 0x1F DUP10 AND DUP3 PUSH2 0xB50 JUMP JUMPDEST DUP4 SSTORE POP JUMPDEST PUSH1 0x1 PUSH1 0x2 DUP9 MUL ADD DUP9 SSTORE POP POP POP JUMPDEST POP POP POP POP POP POP JUMP INVALID LOG2 PUSH5 0x6970667358 0x22 SLT KECCAK256 COINBASE CREATE SELFDESTRUCT 0xCC OR SWAP5 0xD3 0xE5 MOD 0x23 PUSH26 0x75362E0F9C65DFFDE80BF600E9998C0E668851DAC164736F6C63 NUMBER STOP ADDMOD XOR STOP CALLER "},"methodIdentifiers":{"allDiamonds(uint256)":"1e570dd4","getData()":"3bc5de30","getId()":"5d1ca631","myLocation()":"dd92abe9","senderInfo()":"d82f9c78","setSenderValues(string)":"d92e4983","setValues(uint256,string,uint256)":"773859fd"}}}}}